{
  "contractName": "register",
  "abi": [
    {
      "inputs": [
        {
          "internalType": "address",
          "name": "username",
          "type": "address"
        },
        {
          "internalType": "string",
          "name": "name",
          "type": "string"
        },
        {
          "internalType": "uint256",
          "name": "password",
          "type": "uint256"
        },
        {
          "internalType": "string",
          "name": "email",
          "type": "string"
        },
        {
          "internalType": "string",
          "name": "mobile",
          "type": "string"
        }
      ],
      "name": "registerUser",
      "outputs": [],
      "stateMutability": "nonpayable",
      "type": "function"
    },
    {
      "inputs": [],
      "name": "viewUsers",
      "outputs": [
        {
          "internalType": "address[]",
          "name": "",
          "type": "address[]"
        },
        {
          "internalType": "string[]",
          "name": "",
          "type": "string[]"
        },
        {
          "internalType": "uint256[]",
          "name": "",
          "type": "uint256[]"
        },
        {
          "internalType": "string[]",
          "name": "",
          "type": "string[]"
        },
        {
          "internalType": "string[]",
          "name": "",
          "type": "string[]"
        }
      ],
      "stateMutability": "view",
      "type": "function",
      "constant": true
    },
    {
      "inputs": [
        {
          "internalType": "address",
          "name": "username",
          "type": "address"
        },
        {
          "internalType": "uint256",
          "name": "password",
          "type": "uint256"
        }
      ],
      "name": "loginUser",
      "outputs": [
        {
          "internalType": "bool",
          "name": "",
          "type": "bool"
        }
      ],
      "stateMutability": "view",
      "type": "function",
      "constant": true
    }
  ],
  "bytecode": "0x608060405234801561001057600080fd5b50611157806100206000396000f3fe608060405234801561001057600080fd5b50600436106100415760003560e01c806314ebdb7914610046578063a99b543214610068578063eb72346b14610084575b600080fd5b61004e6100b4565b60405161005f959493929190610a41565b60405180910390f35b610082600480360381019061007d9190610c58565b61042a565b005b61009e60048036038101906100999190610d27565b61060b565b6040516100ab9190610d82565b60405180910390f35b6060806060806060600060016002600360048480548060200260200160405190810160405280929190818152602001828054801561014757602002820191906000526020600020905b8160009054906101000a900473ffffffffffffffffffffffffffffffffffffffff1673ffffffffffffffffffffffffffffffffffffffff16815260200190600101908083116100fd575b5050505050945083805480602002602001604051908101604052809291908181526020016000905b8282101561021b57838290600052602060002001805461018e90610dcc565b80601f01602080910402602001604051908101604052809291908181526020018280546101ba90610dcc565b80156102075780601f106101dc57610100808354040283529160200191610207565b820191906000526020600020905b8154815290600101906020018083116101ea57829003601f168201915b50505050508152602001906001019061016f565b5050505093508280548060200260200160405190810160405280929190818152602001828054801561026c57602002820191906000526020600020905b815481526020019060010190808311610258575b5050505050925081805480602002602001604051908101604052809291908181526020016000905b828210156103405783829060005260206000200180546102b390610dcc565b80601f01602080910402602001604051908101604052809291908181526020018280546102df90610dcc565b801561032c5780601f106103015761010080835404028352916020019161032c565b820191906000526020600020905b81548152906001019060200180831161030f57829003601f168201915b505050505081526020019060010190610294565b50505050915080805480602002602001604051908101604052809291908181526020016000905b8282101561041357838290600052602060002001805461038690610dcc565b80601f01602080910402602001604051908101604052809291908181526020018280546103b290610dcc565b80156103ff5780601f106103d4576101008083540402835291602001916103ff565b820191906000526020600020905b8154815290600101906020018083116103e257829003601f168201915b505050505081526020019060010190610367565b505050509050945094509450945094509091929394565b600560008673ffffffffffffffffffffffffffffffffffffffff1673ffffffffffffffffffffffffffffffffffffffff16815260200190815260200160002060009054906101000a900460ff161561048157600080fd5b6000859080600181540180825580915050600190039060005260206000200160009091909190916101000a81548173ffffffffffffffffffffffffffffffffffffffff021916908373ffffffffffffffffffffffffffffffffffffffff1602179055506001849080600181540180825580915050600190039060005260206000200160009091909190915090816105189190610fa9565b5060028390806001815401808255809150506001900390600052602060002001600090919091909150556003829080600181540180825580915050600190039060005260206000200160009091909190915090816105769190610fa9565b506004819080600181540180825580915050600190039060005260206000200160009091909190915090816105ab9190610fa9565b506001600560008773ffffffffffffffffffffffffffffffffffffffff1673ffffffffffffffffffffffffffffffffffffffff16815260200190815260200160002060006101000a81548160ff0219169083151502179055505050505050565b6000600560008473ffffffffffffffffffffffffffffffffffffffff1673ffffffffffffffffffffffffffffffffffffffff16815260200190815260200160002060009054906101000a900460ff1661066357600080fd5b60005b60008054905081101561072b578373ffffffffffffffffffffffffffffffffffffffff166000828154811061069e5761069d61107b565b5b9060005260206000200160009054906101000a900473ffffffffffffffffffffffffffffffffffffffff1673ffffffffffffffffffffffffffffffffffffffff16148015610709575082600282815481106106fc576106fb61107b565b5b9060005260206000200154145b15610718576001915050610731565b8080610723906110d9565b915050610666565b60009150505b92915050565b600081519050919050565b600082825260208201905092915050565b6000819050602082019050919050565b600073ffffffffffffffffffffffffffffffffffffffff82169050919050565b600061078e82610763565b9050919050565b61079e81610783565b82525050565b60006107b08383610795565b60208301905092915050565b6000602082019050919050565b60006107d482610737565b6107de8185610742565b93506107e983610753565b8060005b8381101561081a57815161080188826107a4565b975061080c836107bc565b9250506001810190506107ed565b5085935050505092915050565b600081519050919050565b600082825260208201905092915050565b6000819050602082019050919050565b600081519050919050565b600082825260208201905092915050565b60005b8381101561088d578082015181840152602081019050610872565b60008484015250505050565b6000601f19601f8301169050919050565b60006108b582610853565b6108bf818561085e565b93506108cf81856020860161086f565b6108d881610899565b840191505092915050565b60006108ef83836108aa565b905092915050565b6000602082019050919050565b600061090f82610827565b6109198185610832565b93508360208202850161092b85610843565b8060005b85811015610967578484038952815161094885826108e3565b9450610953836108f7565b925060208a0199505060018101905061092f565b50829750879550505050505092915050565b600081519050919050565b600082825260208201905092915050565b6000819050602082019050919050565b6000819050919050565b6109b8816109a5565b82525050565b60006109ca83836109af565b60208301905092915050565b6000602082019050919050565b60006109ee82610979565b6109f88185610984565b9350610a0383610995565b8060005b83811015610a34578151610a1b88826109be565b9750610a26836109d6565b925050600181019050610a07565b5085935050505092915050565b600060a0820190508181036000830152610a5b81886107c9565b90508181036020830152610a6f8187610904565b90508181036040830152610a8381866109e3565b90508181036060830152610a978185610904565b90508181036080830152610aab8184610904565b90509695505050505050565b6000604051905090565b600080fd5b600080fd5b610ad481610783565b8114610adf57600080fd5b50565b600081359050610af181610acb565b92915050565b600080fd5b600080fd5b7f4e487b7100000000000000000000000000000000000000000000000000000000600052604160045260246000fd5b610b3982610899565b810181811067ffffffffffffffff82111715610b5857610b57610b01565b5b80604052505050565b6000610b6b610ab7565b9050610b778282610b30565b919050565b600067ffffffffffffffff821115610b9757610b96610b01565b5b610ba082610899565b9050602081019050919050565b82818337600083830152505050565b6000610bcf610bca84610b7c565b610b61565b905082815260208101848484011115610beb57610bea610afc565b5b610bf6848285610bad565b509392505050565b600082601f830112610c1357610c12610af7565b5b8135610c23848260208601610bbc565b91505092915050565b610c35816109a5565b8114610c4057600080fd5b50565b600081359050610c5281610c2c565b92915050565b600080600080600060a08688031215610c7457610c73610ac1565b5b6000610c8288828901610ae2565b955050602086013567ffffffffffffffff811115610ca357610ca2610ac6565b5b610caf88828901610bfe565b9450506040610cc088828901610c43565b935050606086013567ffffffffffffffff811115610ce157610ce0610ac6565b5b610ced88828901610bfe565b925050608086013567ffffffffffffffff811115610d0e57610d0d610ac6565b5b610d1a88828901610bfe565b9150509295509295909350565b60008060408385031215610d3e57610d3d610ac1565b5b6000610d4c85828601610ae2565b9250506020610d5d85828601610c43565b9150509250929050565b60008115159050919050565b610d7c81610d67565b82525050565b6000602082019050610d976000830184610d73565b92915050565b7f4e487b7100000000000000000000000000000000000000000000000000000000600052602260045260246000fd5b60006002820490506001821680610de457607f821691505b602082108103610df757610df6610d9d565b5b50919050565b60008190508160005260206000209050919050565b60006020601f8301049050919050565b600082821b905092915050565b600060088302610e5f7fffffffffffffffffffffffffffffffffffffffffffffffffffffffffffffffff82610e22565b610e698683610e22565b95508019841693508086168417925050509392505050565b6000819050919050565b6000610ea6610ea1610e9c846109a5565b610e81565b6109a5565b9050919050565b6000819050919050565b610ec083610e8b565b610ed4610ecc82610ead565b848454610e2f565b825550505050565b600090565b610ee9610edc565b610ef4818484610eb7565b505050565b5b81811015610f1857610f0d600082610ee1565b600181019050610efa565b5050565b601f821115610f5d57610f2e81610dfd565b610f3784610e12565b81016020851015610f46578190505b610f5a610f5285610e12565b830182610ef9565b50505b505050565b600082821c905092915050565b6000610f8060001984600802610f62565b1980831691505092915050565b6000610f998383610f6f565b9150826002028217905092915050565b610fb282610853565b67ffffffffffffffff811115610fcb57610fca610b01565b5b610fd58254610dcc565b610fe0828285610f1c565b600060209050601f8311600181146110135760008415611001578287015190505b61100b8582610f8d565b865550611073565b601f19841661102186610dfd565b60005b8281101561104957848901518255600182019150602085019450602081019050611024565b868310156110665784890151611062601f891682610f6f565b8355505b6001600288020188555050505b505050505050565b7f4e487b7100000000000000000000000000000000000000000000000000000000600052603260045260246000fd5b7f4e487b7100000000000000000000000000000000000000000000000000000000600052601160045260246000fd5b60006110e4826109a5565b91507fffffffffffffffffffffffffffffffffffffffffffffffffffffffffffffffff8203611116576111156110aa565b5b60018201905091905056fea26469706673582212200a3bfb858f44fd456b7ac85ac16cf0d106dc504068c3c54cd2353442431297c264736f6c63430008120033",
  "immutableReferences": {},
  "source": "// SPDX-License-Identifier: MIT\npragma solidity >=0.4.22 <0.9.0;\n\ncontract register {\n  \n  // Contract Variables\n  address[] _usernames; // dynamic array \n  string[] _names;\n  uint[] _passwords;\n  string[] _emails; \n  string[] _mobiles;\n\n  // avoid duplicate registrations\n  mapping(address=>bool) _users;\n\n  // INSERT INTO TABLE - inserting data\n  // this function is used to insert data into the blockchain\n  function registerUser(address username,string memory name, uint password,string memory email,string memory mobile) public {\n\n    // whether user is already registered\n    require(!_users[username]); // it throws error when user is already registered\n\n    _usernames.push(username);\n    _names.push(name);\n    _passwords.push(password);\n    _emails.push(email);\n    _mobiles.push(mobile);\n    _users[username]=true;\n  }\n\n  // function to return all this details\n  // SELECT *\n  function viewUsers() public view returns(address[] memory, string[] memory, uint[] memory, string[] memory, string[] memory){\n    return(_usernames,_names,_passwords,_emails,_mobiles);\n  }\n\n  // function to check login\n  function loginUser(address username,uint password) public view returns(bool){\n\n    require(_users[username]);\n\n    uint i;\n    for(i=0;i<_usernames.length;i++){\n      if(_usernames[i]==username && _passwords[i]==password){\n        return true;\n      }\n    }\n    return false;\n  }\n}\n",
  "sourcePath": "/home/jybolakoncept/Desktop/personal-identity-security-system/contracts/register.sol",
  "compiler": {
    "name": "solc",
    "version": "0.8.18+commit.87f61d96.Emscripten.clang"
  },
  "schemaVersion": "3.4.16",
  "updatedAt": "2024-06-22T16:51:22.881Z",
  "networkType": "ethereum",
  "devdoc": {
    "kind": "dev",
    "methods": {},
    "version": 1
  },
  "userdoc": {
    "kind": "user",
    "methods": {},
    "version": 1
  },
  "db": {
    "callBytecode": {
      "id": "0x39f74cbca8a50b41f20bf1d2152d5c5211f6245ea505ef0883fec2f34a41a430"
    },
    "createBytecode": {
      "id": "0x56d870f61a1832a9db66e3e193adba74bca2771217badfa17f5fa647feb856a0"
    },
    "contract": {
      "id": "0xd431ca6e42d52db85cd00a7dfddeadf87db11c05926097f00d718a028e253922"
    }
  }
}